:020000040000FA
:060000000A128A11FC2F18
:100F8800831603178801831203138501831603133D
:100F9800850101308312031385000508031DD52F31
:100FA800D62FD72FF92FA630F000F00BD92F00003D
:100FB8008030831203130506031DE32FE42FF62F59
:100FC800803085000508031DEA2FEB2FEC2FF62F44
:100FD800A630F000F00BEE2F00000310831203136D
:100FE800850CE62F0310850DD12F0A128A110028CF
:080FF80083010A128A11C42FC3
:04400E00D42CFF3F70
:00000001FF
